S0180000446976657267656E6365204D657465722E73726563F3
S11300000C945A000C9477000C9477000C944507D8
S11300100C9477000C9477000C9477000C94770080
S11300200C9477000C9477000C9477000C94D10A0C
S11300300C9477000C9477000C94680E0C94770061
S11300400C9477000C9477000C9477000C94770050
S11300500C9477000C9477000C9477000C94770040
S11300600C9477000C9477006A077107780791075E
S113007098079F07B007C507CC07D1074D0A620A46
S1130080760A910ADE07260848084B085A087C08B5
S1130090AC09CE09D909070A310A3F0A560B710B7C
S11300A08B0BA50BBD0BD30BE90BFF0B130C210C16
S11300B02F0C380C11241FBECFEFD8E0DEBFCDBF0C
S11300C011E0A0E0B1E0EEEDFEE102C005900D927A
S11300D0A036B107D9F721E0A0E6B1E001C01D9236
S11300E0A93EB207E1F70E94AF000C946D0F0C9487
S11300F0000028980895289A0895569A579A3A9A8B
S1130100399A389A209A559A219827980E947B0008
S11301102FEF83ED90E3215080409040E1F700C041
S113012000000E94620E5E980E94050F0E94D40E89
S11301300E9479000E947D0C0E9490064CE651E0DA
S113014062E671E08FE691E00E94B2000E94AB0C7F
S11301500E9431070E94250781E090E008950E94E3
S11301607D00FFCFBF92CF92DF92EF92FF920F9369
S11301701F93CF93DF93EC018B017A010E94E70E6A
S113018080ED0E94ED0E80E00E94ED0E0E94E70ECD
S113019081ED0E94ED0E0E94F50EC82E0E94F50E10
S11301A0B82E0E94FD0ED82E0E94DD0ED6FC11C082
S11301B02D2D207330E03595279535952795359568
S11301C02795359527952883F7011082F801108229
S11301D00BC0D4FA882780F9888381E0F7018083F3
S11301E08D2D8072F80180838D2D8F7089838B2DE6
S11301F082958F708A838B2D8F708B838C2D829543
S11302008F708C838C2D8F708D83DF91CF911F9194
S11302100F91FF90EF90DF90CF90BF900895FF92E1
S11302200F931F93CF93DF93EC010E94E70E80EDB1
S11302300E94ED0E84E00E94ED0E0E94E70E81ED17
S11302400E94ED0E0E94F50E082F0E94F50EF82E66
S11302500E94FD0E182F0E94DD0EF4FA882780F903
S113026088838F2D8F708983802F82958F708A83E6
S11302700F700B83812F82958F708C831F701D8369
S1130280DF91CF911F910F91FF900895CF93DF934A
S1130290C82F0E94E70E80ED0E94ED0E82E00E94BE
S11302A0ED0E0E94E70E81ED0E94ED0E0E94FD0E00
S11302B0D82F0E94DD0E0E94E70E80ED0E94ED0E05
S11302C082E00E94ED0E9DECC99F912D112496951C
S11302D09695969580E1989F90011124990F892F06
S11302E0880F880F980FC91B2C2B8D2F8074822B9D
S11302F00E94ED0E0E94DD0EDF91CF910895CF9301
S1130300C82F0E94E70E80ED0E94ED0E81E00E944E
S1130310ED0E8DECC89F812D1124869586958695CA
S113032090E1899F90011124880F982F990F990FBC
S1130330890FC81B8C2F822B0E94ED0E0E94DD0EAC
S1130340CF9108950E94E70E80ED0E94ED0E80E0AB
S11303500E94ED0E80E00E94ED0E0E94DD0E0895D5
S1130360CF93DF93C82F0E94E70E80ED0E94ED0E1D
S113037085E00E94ED0E0E94E70E81ED0E94ED0ED5
S11303800E94FD0ED82F0E94DD0E0E94E70E80ED24
S11303900E94ED0E85E00E94ED0E9DECC99F912D0B
S11303A0112496959695969580E1989F9001112435
S11303B0990F892F880F880F980FC91B2C2B8D2F0D
S11303C08078822B0E94ED0E0E94DD0EDF91CF918A
S11303D00895CF93C82F0E94E70E80ED0E94ED0E82
S11303E084E00E94ED0E8DECC89F812D112486952A
S11303F08695869590E1899F90011124880F982F06
S1130400990F990F890FC81B8C2F822B0E94ED0E18
S11304100E94DD0ECF910895CF93C82F0E94E70E5E
S113042080ED0E94ED0E86E00E94ED0E8DECC89FDB
S1130430812D112486958695869590E1899F90015A
S11304401124880F982F990F990F890FC81B8C2F8F
S1130450822B0E94ED0E0E94DD0ECF910895CF9362
S1130460DF93CDB7DEB728970FB6F894DEBF0FBE83
S1130470CDBFAE01485F5F4FBE01695F7F4FCE01C4
S113048001960E94B200888528960FB6F894DEBFC4
S11304900FBECDBFDF91CF910895BF92CF92DF926F
S11304A0EF92FF920F931F93CF93DF93EC018B0195
S11304B07A010E94E70E80ED0E94ED0E87E00E9413
S11304C0ED0E0E94E70E81ED0E94ED0E0E94F50EE6
S11304D0C82E0E94F50EB82E0E94FD0ED82E0E9442
S11304E0DD0ED6FE12C02D2D207330E035952795F4
S11304F0359527953595279535952795288381E05A
S1130500F7018083F801108209C08D2D80718883E2
S1130510F70110828D2D8072F80180838D2D8F70EC
S113052089838B2D82958F708A838B2D8F708B831B
S11305308C2D82958F708C838C2D8F708D83DF91A1
S1130540CF911F910F91FF90EF90DF90CF90BF90CC
S11305500895CF92DF92EF92FF920F931F93CF9360
S1130560DF93EC018B017A010E94E70E80ED0E947B
S1130570ED0E8BE00E94ED0E0E94E70E81ED0E94CD
S1130580ED0E0E94F50EC82E0E94FD0ED82E0E947C
S1130590DD0ED6FE12C02D2D207330E03595279543
S11305A0359527953595279535952795288381E0A9
S11305B0F7018083F801108209C08D2D8071888332
S11305C0F70110828D2D8072F80180838D2D8F703C
S11305D089838C2D82958F708A838C2D8F708B8369
S11305E0DF91CF911F910F91FF90EF90DF90CF900B
S11305F008951F93CF93DF93CDB7DEB766970FB6F9
S1130600F894DEBF0FBECDBF182FAE01485F5F4F19
S1130610BE01695F7F4FCE0101960E94B200AE0118
S1130620405F5F4FBE01615F7F4FCE0109960E941C
S11306304D02AE014A5E5F4FBE016B5E7F4FCE013D
S113064041960E94A902112309F40CC188858111E5
S113065036C299818A81292F30E0A901440F551FA0
S1130660220F331F220F331F220F331F240F351F76
S1130670280F311D2D303105BCF08C50990F192FE6
S1130680110F110F910F182F190F0E94E70E80ED13
S11306900E94ED0E82E00E94ED0E812F80660E9482
S11306A0ED0E0E94DD0E2DC021E0811120E02223F9
S11306B099F021E0911120E0222371F00E94E70ECD
S11306C080ED0E94ED0E82E00E94ED0E8CE40E940B
S11306D0ED0E0E94DD0E15C0990F192F110F110F89
S11306E0910F192F180F0E94E70E80ED0E94ED0E56
S11306F082E00E94ED0E812F80640E94ED0E0E9424
S1130700DD0E99858A85292F30E0A901440F551FF4
S1130710220F331F220F331F220F331F240F351FC5
S1130720280F311D2D303105BCF08C50990F192F35
S1130730110F110F910F182F190F0E94E70E80ED62
S11307400E94ED0E89E00E94ED0E812F80660E94CA
S1130750ED0E0E94DD0E2DC021E0811120E0222348
S113076099F021E0911120E0222371F00E94E70E1C
S113077080ED0E94ED0E89E00E94ED0E8CE40E9453
S1130780ED0E0E94DD0E15C0990F192F110F110FD8
S1130790910F192F180F0E94E70E80ED0E94ED0EA5
S11307A089E00E94ED0E812F80640E94ED0E0E946C
S11307B0DD0E99898A89292F30E0A901440F551F3C
S11307C0220F331F220F331F220F331F240F351F15
S11307D0280F311D2D303105BCF08C50990F192F85
S11307E0110F110F910F182F190F0E94E70E80EDB2
S11307F00E94ED0E8CE00E94ED0E812F80660E9417
S1130800ED0E0E94DD0E5BC121E0811120E0222368
S113081099F021E0911120E0222371F00E94E70E6B
S113082080ED0E94ED0E8CE00E94ED0E8CE40E949F
S1130830ED0E0E94DD0E43C1990F192F110F110FF8
S1130840910F192F180F0E94E70E80ED0E94ED0EF4
S113085089E00E94ED0E812F80640E94ED0E0E94BB
S1130860DD0E2DC18885882309F429C1EF81998182
S11308708A81292F30E0A901440F551F220F331F0D
S1130880220F331F220F331F240F351F280F311D52
S113089041E050E02C30310511F440E050E06E2F7F
S11308A070E046235723452BB1F0845F990F192F2D
S11308B0110F110F910F182F190F0E94E70E80EDE1
S11308C00E94ED0E82E00E94ED0E812F0E94ED0E3B
S11308D00E94DD0E2EC041E02C30310509F040E0CD
S11308E0442399F021E0E11120E0222371F00E94D9
S11308F0E70E80ED0E94ED0E82E00E94ED0E80E096
S11309000E94ED0E0E94DD0E14C0990F192F110FD5
S1130910110F910F192F180F0E94E70E80ED0E94FE
S1130920ED0E82E00E94ED0E812F0E94ED0E0E94DA
S1130930DD0EEF8599858A85292F30E0A901440FC2
S1130940551F220F331F220F331F220F331F240F73
S1130950351F280F311D41E050E02C30310511F4D2
S113096040E050E06E2F70E046235723452BB1F052
S1130970845F990F192F110F110F910F182F190F51
S11309800E94E70E80ED0E94ED0E89E00E94ED0EBC
S1130990812F0E94ED0E0E94DD0E2EC041E02C300E
S11309A0310509F040E0442399F021E0E11120E011
S11309B0222371F00E94E70E80ED0E94ED0E89E083
S11309C00E94ED0E80E00E94ED0E0E94DD0E14C028
S11309D0990F192F110F110F910F192F180F0E9432
S11309E0E70E80ED0E94ED0E89E00E94ED0E812F4E
S11309F00E94ED0E0E94DD0EED8999898A89292FC6
S1130A0030E0A901440F551F220F331F220F331F5B
S1130A10220F331F240F351F280F311D41E050E0F2
S1130A202C30310511F440E050E06E2F70E0462385
S1130A305723452BB1F0845F990F192F110F110F14
S1130A40910F182F190F0E94E70E80ED0E94ED0EF2
S1130A508CE00E94ED0E812F0E94ED0E0E94DD0EAF
S1130A602EC041E02C30310509F040E0442399F0D8
S1130A7021E0E11120E0222371F00E94E70E80EDD5
S1130A800E94ED0E8CE00E94ED0E80E00E94ED0EBF
S1130A900E94DD0E14C0990F192F110F110F910F21
S1130AA0192F180F0E94E70E80ED0E94ED0E8CE0C6
S1130AB00E94ED0E812F0E94ED0E0E94DD0E6696BF
S1130AC00FB6F894DEBF0FBECDBFDF91CF911F915B
S1130AD00895EF92FF920F931F93CF93DF93C82F44
S1130AE0D62F042FE22E0E94E70E80ED0E94ED0E19
S1130AF089E00E94ED0E0E94E70E81ED0E94ED0E4A
S1130B000E94FD0EF82E0E94DD0E0E94E70E80ED7D
S1130B100E94ED0E87E00E94ED0E1DEC019F912DC9
S1130B20112496959695969530E1939FF0011124A2
S1130B30990F892F880F880F980F802F891B8E2B70
S1130B400E94ED0ED19F112D112416951695169520
S1130B5080E1189FA0011124110F812F880F880FA5
S1130B60180F8D2F811B842B0E94ED0EF6FE1CC0E6
S1130B704DECC49F412D1124469546954695842FEE
S1130B80880F982F990F990F890FC81BC06490E2A2
S1130B90E99E900111242C2B30E1439FC0011124C4
S1130BA0822B0E94ED0E15C08DECC89F812D11245F
S1130BB086958695869590E1899F90011124880FEA
S1130BC0982F990F990F890FC81B8C2F822B0E9485
S1130BD0ED0E80E80E94ED0E0E94DD0EDF91CF91B4
S1130BE01F910F91FF90EF9008950F931F93CF9350
S1130BF0DF93C82FD62F042F0E94E70E80ED0E94AA
S1130C00ED0E8CE00E94ED0E0E94E70E81ED0E9435
S1130C10ED0E0E94FD0E182F0E94DD0E0E94E70EBD
S1130C2080ED0E94ED0E8BE00E94ED0E9DECD99FAD
S1130C30912D112496959695969580E1989F900113
S1130C401124990F892F880F880F980F8D2F891BD6
S1130C50822B0E94ED0E16FF1CC02DECC29F212D8D
S1130C601124269526952695822F880F982F990F63
S1130C70990F890FC81BC06490E2099FA001112439
S1130C804C2B30E1239FC0011124842B0E94ED0ED4
S1130C9015C08DECC89F812D112486958695869567
S1130CA090E1899F90011124880F982F990F990F33
S1130CB0890FC81B8C2F822B0E94ED0E80E80E94A6
S1130CC0ED0E0E94DD0EDF91CF911F910F910895DB
S1130CD0CF93C82F0E94E70E80ED0E94ED0E80E1B5
S1130CE00E94ED0E8C2F0E94ED0E0E94DD0ECF911E
S1130CF00895CF93DF93EC010E94E70E80ED0E94EC
S1130D00ED0E80E10E94ED0E0E94E70E81ED0E943F
S1130D10ED0E0E94FD0E8F778883DF91CF910895A9
S1130D2080E996EBA8E0B0E080937C0190937D018C
S1130D30A0937E01B0937F0185E896EBA8E0B0E034
S1130D408093800190938101A0938201B0938301E9
S1130D5083E29CEFA7E0B0E0809384019093850147
S1130D60A0938601B093870187EC98EFA6E0B0E0EA
S1130D708093880190938901A0938A01B0938B0199
S1130D808CE49FE3A6E0B0E080938C0190938D0106
S1130D90A0938E01B0938F0183E295E2A5E0B0E0C9
S1130DA08093900190939101A0939201B093930149
S1130DB087E59FE3A6E0B0E08093940190939501CA
S1130DC0A0939601B093970182ED98EFA6E0B0E06E
S1130DD08093980190939901A0939A01B0939B01F9
S1130DE08BE29CEFA7E0B0E080939C0190939D017F
S1130DF0A0939E01B0939F0186EA96EBA8E0B0E031
S1130E008093A0019093A101A093A201B093A301A8
S1130E108DED9EE3A1E1B0E08093A4019093A50140
S1130E20A093A601B093A7011092630110926401EC
S1130E301092650110926601109269011092680186
S1130E4010926101109260010895E8E6F0E080815B
S1130E5081608083EBE6F0E080818268808378940F
S1130E60089580E290E09093890080938800E0E800
S1130E70F0E080818260808385E08093810082E05D
S1130E8080936F0086BB789408951F920F920FB6DB
S1130E900F921124FF920F931F932F933F934F931D
S1130EA05F936F937F938F939F93AF93BF93CF93EE
S1130EB0DF93EF93FF93199B59C080916801909140
S1130EC069018730910508F051C0FC01EC5CFF4FCB
S1130ED00C94530F81E090E0909369018093680132
S1130EE045C082E090E090936901809368013EC020
S1130EF080916001909161010B9749F4109269010E
S1130F001092680110926101109260012FC08091CB
S1130F106001909161010196909361018093600159
S1130F2025C084E090E090936901809368011EC01D
S1130F3085E090E0909369018093680117C08091E7
S1130F40600190916101059789F486E090E09093A7
S1130F50690180936801109261011092600106C0DA
S1130F6083E090E090936901809368011F9BDDC248
S1130F7080916801909169018730910508F0D5C28C
S1130F80FC01E55CFF4F0C94530F83E090E09093D9
S1130F90690180936801C9C21092690110926801C5
S1130FA0C4C280916001909161018C30910508F078
S1130FB0BCC2FC01EE5BFF4F0C94530F80916C019B
S1130FC0882311F190916F012091700181E022300A
S1130FD008F480E0882351F081E0911101C080E0A1
S1130FE0882321F081E00E9446019FC290916F0105
S1130FF0809170018F5F990F292F220F220F920F7A
S1131000890F0E94460191C290916F012091700155
S113101081E0233008F480E0882351F081E09230AD
S113102008F480E0882321F080E00E9446017DC21C
S113103090916F01809170018F5F990F292F220F7A
S1131040220F920F890F0E9446016FC220917101F5
S11310509091720181E0993009F080E0882351F089
S113106081E0253009F080E0882321F080E00E94AF
S11310707F015BC290917101809172018F5F990F22
S1131080292F220F220F920F890F0E947F014DC238
S11310900E94A2014AC290916C0181E0911180E00A
S11310A00E94F90290916C0181E0911180E080939B
S11310B06C013BC22091AC019091AD0181E0923072
S11310C009F080E0882351F081E0213009F080E0CC
S11310D0882321F081E00E94B00127C29091AC01E5
S11310E08091AD018F5F990F292F220F220F920F4C
S11310F0890F0E94B00119C2ACEAB1E0DC91EDEABB
S1131100F1E0F0802C9190811C9100817C91C08150
S11311105C9160813C914081AC91E08181E09330AD
S113112009F080E091E0211190E0282F292381E04B
S1131130F81280E091E0D11190E08923282B81E01E
S1131140053009F080E091E0111190E08923282B0B
S113115081E0C73009F080E091E0711190E08923CB
S1131160282B81E0683009F080E091E0511190E093
S11311708923282B91E0411190E081E0313009F07E
S113118080E08923822B51F491E0E23009F090E071
S113119081E0A13009F080E0892311F19091AE0142
S11311A02091AF0181E0213009F080E0882351F0E3
S11311B081E0933009F080E0882321F081E00E94EF
S11311C0E901B3C19091AE018091AF018F5F990F96
S11311D0292F220F220F920F890F0E94E901A5C126
S11311E09091AC012091AD0181E0223009F080E0C2
S11311F0882309F490C081E0911180E0882309F4E8
S11312008AC0A0EBB1E04C91E1EBF1E0C0812C91FC
S11312108081DC91F08190E03AE0239F800D911D64
S1131220112464E670E00E941D0F01E010E020E04C
S113123030E0892B19F000E010E09801EAE08F2FEC
S113124090E0ED9F800D911D112460E971E00E94F2
S11312501D0FAA2797FDA095BA2F082319232A2327
S11312603B238C2F90E0E49F800D911D112464E0BA
S113127070E00E941D0FAA2797FDA095BA2F082B96
S1131280192B2A2B3B2B012B022B032B11F19091B1
S1131290AE012091AF0181E0283009F080E088237D
S11312A051F081E0923009F080E0882321F081E060
S11312B00E94E9013AC19091AE018091AF018F5F24
S11312C0990F292F220F220F920F890F0E94E901F3
S11312D02CC19091AE012091AF0181E0293009F039
S11312E080E0882351F081E0923009F080E0882387
S11312F021F081E00E94E90118C19091AE01809132
S1131300AF018F5F990F292F220F220F920F890FA0
S11313100E94E9010AC19091AE012091AF0181E0E0
S1131320211180E0882351F081E0933009F080E0BE
S1131330882321F081E00E94E901F7C09091AE0179
S11313408091AF018F5F990F292F220F220F920FE7
S1131350890F0E94E901E9C02091B0019091B10187
S113136081E0993009F080E0882351F081E0293050
S113137009F080E0882321F080E00E940C02D5C0AF
S11313809091B0018091B1018F5F990F292F220FA5
S1131390220F920F890F0E940C02C7C080916E0128
S11313A0882319F010926E01C0C081E080936E0111
S11313B0BCC080916C018823A1F080916A018731BF
S11313C039F420E040E060E080E00E946905ADC0AF
S11313D080916A0120E040E060E08F5F0E9469052F
S11313E0A4C080916A018C3041F420916B0140E0EB
S11313F060E081E00E94690598C020916B018091B2
S11314006A0140E060E08F5F0E9469058EC08091B0
S11314106C01882391F080916701873131F440E0B9
S113142060E080E00E94F50580C08091670140E0A3
S113143060E08F5F0E94F50578C0809167018C3071
S113144039F44091B20160E081E00E94F5056DC07D
S11314504091B2018091670160E08F5F0E94F505C1
S113146064C08091E501873021F481E08093E50137
S11314705CC08091E5018F5F8093E50156C0809147
S11314806D018C3021F480E00E9468064EC080918A
S11314906D018F5F0E94680648C080916001909141
S11314A061010A9729F410926101109260013DC014
S11314B08091600190916101019690936101809304
S11314C0600133C08091630190916401A091650132
S11314D0B09166010196A11DB11D809363019093A3
S11314E06401A0936501B09366011FC0E09160019F
S11314F0F0916101EB58FE4F8081893041F4E09115
S11315006001F0916101EB58FE4F10820EC0E09132
S11315106001F0916101EB58FE4F80818F5F808301
S113152004C01092690110926801FF91EF91DF915C
S1131530CF91BF91AF919F918F917F916F915F9167
S11315404F913F912F911F910F91FF900F900FBEDC
S11315500F901F9018954CE651E06BE671E083EB19
S113156091E00E944D029091B3012091B401990F32
S1131570892F880F880F890F820F08954CE651E058
S113158062EB71E088EA91E00E94A9029091A801BF
S11315902091A901990F892F880F880F890F820F35
S11315A008951F920F920FB60F9211242F933F9319
S11315B04F935F936F937F938F939F93AF93BF9357
S11315C0EF93FF93809168019091690182309105B6
S11315D009F45FC034F4009771F0019709F44EC028
S11315E07BC18430910509F463C10CF44EC10697A4
S11315F009F46BC171C14CE651E062E671E08FE61B
S113160091E00E94B200209173018091740190E0F6
S1131610820F911D892B81F080917301823021F416
S113162080917401893041F080917301833041F4D9
S113163080917401843021F481E08093E8014CC1ED
S113164080917301833089F480917401843068F44B
S11316508CEA91E00E940F011092E80165EC71E0C0
S11316608CEA91E00E947E0D37C11092E80165EC8E
S113167071E08FE691E00E940F0D2EC18CEA91E09B
S11316800E940F0165EC71E08CEA91E00E947E0DEE
S113169023C180916001909161018C30910508F023
S11316A01BC1FC01E25BFF4F0C94530F4EE651E06B
S11316B062E671E08FE691E00E94B20080916F01D2
S11316C09091700160916201880F482F440F440F7C
S11316D0840F482F490F25EC31E080E00E94490D2A
S11316E0FBC04EE651E062E671E08FE691E00E94B5
S11316F0B2008091710190917201880F482F440FBC
S1131700440F840F482F490F25EC31E060E081E05D
S11317100E94490DE1C04EE651E062E671E08FE6B9
S113172091E00E94B2008091730190917401880F3E
S1131730482F440F440F840F482F490F25EC31E004
S113174060E082E00E94490DC7C00E942F0280938E
S11317506C0180916C01882341F025EC31E04CE070
S113176060E083E00E94490DB7C025EC31E048E118
S113177060E083E00E94490DAFC08CEA91E00E94D2
S11317800F018091AC019091AD01880F482F440F57
S1131790440F840F482F490F25EC31E060E084E0CA
S11317A00E94490D99C08CEA91E00E940F0180913A
S11317B0AE019091AF01880F482F440F440F840F5E
S11317C0482F490F25EC31E060E085E00E94490D87
S11317D083C08CEA91E00E940F018091B001909146
S11317E0B101880F482F440F440F840F482F490F2D
S11317F025EC31E060E086E00E94490D6DC08091E7
S11318006E01882341F025EC31E041E060E087E09F
S11318100E94490D61C025EC31E040E060E087E0C2
S11318200E94490D59C00E94AB0A80936A014091FD
S11318306A0160916B0125EC31E088E00E94490D5A
S11318404BC00E94BE0A809367014091670160917A
S11318506B0125EC31E089E00E94490D3DC04091C7
S1131860E50125EC31E060E08AE00E94490D34C0D6
S11318708DE691E00E94790640916D0125EC31E0FE
S113188060E08BE00E94490D27C0E0916001F09177
S11318906101EE0FFF1FEE0FFF1FE458FE4F608142
S11318A071818281938145EC51E00E94D50C14C072
S11318B0609163017091640180916501909166016A
S11318C045EC51E00E94D50C07C045EC51E060E0C6
S11318D070E0CB010E94D50CFF91EF91BF91AF91C5
S11318E09F918F917F916F915F914F913F912F9134
S11318F00F900FBE0F901F9018951092E60187E08D
S11319008093E50180E090E0FC01E754FE4F1082F3
S113191001968C309105C1F780E090E0FC01EE0F58
S1131920FF1FEB52FE4F1182108201968830910501
S1131930A9F780E090E0FC01EE0FFF1FEB53FE4F90
S113194011821082019688309105A9F71092E8015E
S11319501092E70108958FE087BD84B5826084BD4D
S113196085E085BD82E080936E0085BB7894089500
S11319705E9808955E9A0895409A4098409A089512
S1131980FC0180E090E0208131812B3031051CF096
S11319901182108204C02F5F3F4F31832083019650
S11319A032968830910579F708958F929F92AF927D
S11319B0BF92EF92FF920F931F93CF93DF937A011D
S11319C08A01C1E0D0E00F2EFAE08F2E912CA12CD9
S11319D0B12CF02D03C0219602501109C730D10556
S11319E0D1F3A50194010E94310FF801778766872E
S11319F0622F732F842F952FC830D10564F38BE0A9
S1131A0090E0F70193838283DF91CF911F910F912F
S1131A10FF90EF90BF90AF909F908F900895FC013E
S1131A20DB01808190E011969C938E93818190E0FC
S1131A3013969C938E9312978581482F417050E0A2
S1131A40465F5F4F15965C934E931497828190E0A6
S1131A5017969C938E931697838190E019969C9386
S1131A608E9318978581282F217030E0265F3F4F91
S1131A701B963C932E931A97848190E01D969C9319
S1131A808E931C97858190E01F969C938E931E974E
S1131A900895CF93C62FF90190E001966AE070E0B3
S1131AA00E941D0F71836083938382838CE090E096
S1131AB0958384839783868391878087C11103C02C
S1131AC09387828704C08BE090E0938782872DEC14
S1131AD0429F212D1124269526952695822F90E04C
S1131AE095878487822F880F982F990F990F890FD4
S1131AF0481B50E057874687CF910895DC01FB01CE
S1131B008C9190E09183808311968C91119790E051
S1131B10938382838CE090E09583848312962C9146
S1131B20129730E03783268313962C91139730E075
S1131B30318720879387828714968C91149790E03D
S1131B409587848715968C9190E09787868708956A
S1131B50CF93DF93DC01E62FF72F27E030E04D91A0
S1131B605D914C30510599F0E901CC0FDD1FC20F96
S1131B70D31FCC0FDD1FCC0FDD1F4C0F5D1FEA01FF
S1131B80C050DF4F888190E09183808302C011822E
S1131B9010822150310932962F3F8FEF3807F9F622
S1131BA0DF91CF9108950F931F93CF93DF93FC019F
S1131BB020E030E011922F5F3F4F2C303105D1F7F8
S1131BC0E62FF72F20E030E000E610E0C1E0D0E09F
S1131BD0419151914115510531F1D801A41BB50B27
S1131BE0BD0112F4695F7F4FDB01B595A795B595EB
S1131BF0A795B595A795A80FB91F415051094770EE
S1131C005078552334F441505109486F5F6F4F5F4A
S1131C105F4FBE0102C0660F771F4A95E2F7AB0122
S1131C205C91452B4C932F5F3F4F2830310581F653
S1131C30DF91CF911F910F910895AF92BF92CF92F0
S1131C40DF92EF92FF920F931F93CF93DF936C0178
S1131C500E94B80CE12CF12C0F2EF7E0AF2EF02DE2
S1131C60B12C1BC0F801208130E00C2E02C0359548
S1131C7027950A94E2F720FD04C041980E94BC0C09
S1131C8003C0419A0E94BC0C219760F7EFEFEE1A53
S1131C90FE0AFCE0EF16F10431F0CA2DDB2D8601BB
S1131CA00E0D1F1DDFCF0E94BA0C0E94B80CDF91ED
S1131CB0CF911F910F91FF90EF90DF90CF90BF9045
S1131CC0AF90089542985F9A0895429A5F9A089552
S1131CD01F920F920FB60F9211242F933F934F939D
S1131CE05F936F937F938F939F93AF93BF93EF9380
S1131CF0FF939091E6018091E501891758F12091B5
S1131D00E8013091E70181E090E03A3011F080E0A1
S1131D1090E030E082239323892B21F085EC91E03D
S1131D200E94C00C8091E6018F5F8093E60165ED0F
S1131D3071E085EC91E00E94A80D65ED71E089EBFE
S1131D4091E00E94D30D89EB91E00E941D0E0E9448
S1131D50650E07C08091E6018F5F8093E6010E94C3
S1131D60620E8091E601883011F41092E6018091B0
S1131D70E7018A3019F41092E70105C08091E70168
S1131D808F5F8093E701FF91EF91BF91AF919F9196
S1131D908F917F916F915F914F913F912F910F9010
S1131DA00FBE0F901F90189580E28093B800ECEB63
S1131DB0F0E0808184608083089584E98093BC008E
S1131DC00895ECEBF0E080818823ECF7089584EA31
S1131DD08093BC000E94E10E08958093BB0084E8C8
S1131DE08093BC000E94E10E089584EC8093BC00B3
S1131DF00E94E10E8091BB00089584E88093BC00AA
S1131E000E94E10E8091BB0008951092C50083E307
S1131E108093C400E0ECF0E080818D7F8083E1EC6E
S1131E20F0E0808180618083808188608083E2EC3F
S1131E30F0E0808186608083089597FB072E16F476
S1131E40009407D077FD09D00E94590F07FC05D0F4
S1131E503EF4909581959F4F0895709561957F4FBD
S1131E600895A1E21A2EAA1BBB1BFD010DC0AA1FD7
S1131E70BB1FEE1FFF1FA217B307E407F50720F0EF
S1131E80A21BB30BE40BF50B661F771F881F991F6A
S1131E901A9469F760957095809590959B01AC01B3
S1131EA0BD01CF010895EE0FFF1F0590F491E02DC1
S1131EB00994AA1BBB1B51E107C0AA1FBB1FA6178D
S1131EC0B70710F0A61BB70B881F991F5A95A9F7DF
S1111ED080959095BC01CD010895F894FFCF44
S1131EDE020B0A090807060504030D010E1817154F
S1131EEE16141210110F130C1A232221201F1E1D5B
S1131EFE1C1B2419262F2E2D2C2B2A29282730255E
S1131F0E323B3A393837363534333C313E47464521
S1131F1E44434241403F483D4A534F5152504E4C28
S1131F2E4D4B5449555F5E5D5C5B5A59585760562C
S9030000FC
